:020000040800F2
:100000008806002029020008310200083302000897
:10001000350200083702000839020008000000001D
:100020000000000000000000000000003B0200088B
:100030003D020008000000003F02000841020008E5
:10004000430200084302000843020008430200087C
:10005000430200084302000843020008430200086C
:10006000430200084302000843020008430200085C
:10007000430200084302000843020008430200084C
:10008000430200084302000843020008430200083C
:10009000430200084302000843020008430200082C
:1000A000430200084302000843020008430200081C
:1000B000430200084302000843020008430200080C
:1000C00043020008430200084302000843020008FC
:1000D00043020008430200084302000843020008EC
:1000E00043020008430200084302000843020008DC
:1000F00043020008430200084302000843020008CC
:1001000043020008430200084302000843020008BB
:1001100043020008430200084302000843020008AB
:10012000430200084302000843020008430200089B
:10013000430200084302000843020008430200088B
:10014000430200084302000843020008430200087B
:10015000430200084302000843020008430200086B
:10016000430200084302000843020008430200085B
:100170004302000843020008430200080000000098
:10018000430200084302000800F002F800F03CF8C7
:100190000AA090E8000C82448344AAF10107DA45E2
:1001A00001D100F031F8AFF2090EBAE80F0013F0F8
:1001B000010F18BFFB1A43F001031847E8040000C1
:1001C00008050000103A24BF78C878C1FAD8520751
:1001D00024BF30C830C144BF04680C6070470000C1
:1001E0000023002400250026103A28BF78C1FBD840
:1001F000520728BF30C148BF0B6070471FB500F0E1
:100200004BFA1FBD10B510BD00F031F81146FFF7D5
:10021000F5FF00F021FA00F04FF803B4FFF7F2FF0A
:1002200003BC00F057F80000094880470948004720
:10023000FEE7FEE7FEE7FEE7FEE7FEE7FEE7FEE796
:10024000FEE7FEE704480549054A064B70470000F3
:100250000D0400088901000888000020880600209D
:10026000880200208802002070477047704775465A
:1002700000F02CF8AE4605006946534620F0070012
:10028000854618B020B5FFF7DDFFBDE820404FF0F0
:1002900000064FF000074FF000084FF0000B21F070
:1002A0000701AC46ACE8C009ACE8C009ACE8C0093D
:1002B000ACE8C0098D46704710B50446AFF3008026
:1002C0002046BDE81040FFF7A8BF00000048704777
:1002D0002800002001491820ABBEFEE726000200DE
:1002E0007047000010B54348006840F48030414931
:1002F000086000BF3F48006800F400300028F9D0D3
:100300003C484030006840F080503A494031086035
:100310003848006820F08070364908603648006828
:1003200040F48040344908603448006840F400706C
:10033000324908600846006840F48060086008465A
:10034000006840F4807008600846006840F00500CE
:1003500008602848083000682649083108600846C7
:10036000006840F4A05008600846006840F400406F
:100370000860081F0068224908431E49091D0860DB
:100380000846006820F0100008600846006820F465
:1003900000500860081F006840F08070091F086066
:1003A00000BF1448006800F000700028F9D0114820
:1003B0000830006840F002000E490831086000BFB4
:1003C0000C480830006800F00C000828F8D14FF005
:1003D000FF300121002804DB0A07130E094A1354D9
:1003E00006E00A07140E084A00F00F031B1FD4543E
:1003F00000BF10BD0038024000700040003C0240C9
:100400000854400000E400E018ED00E005480068F2
:1004100040F47000034908604FF0006001498039E2
:100420000860704788ED00E000BF1549096801F4D5
:1004300080310029F9D11249091D096821F4407160
:100440000F4A121D11601146096841F400711160D4
:100450001146096841F0020111601146096841EA3C
:10046000C00111601146096841F48031116000BF7C
:100470000349096801F480310029F9D1704700006F
:100480000C3C02400348006840F00040014908600D
:1004900070470000103C0240F0B504460D46059E32
:1004A0006119012E04D0022E0AD0032E1CD111E0B6
:1004B000002002E00F5C1754401C9842FAD313E06E
:1004C000002004E031F8107022F81070401C9842AF
:1004D000F8D309E0002004E051F8207042F82070C1
:1004E000401C9842F8D300BF00BFF0BD054800682B
:1004F00000F0004028B1044802490C390860034864
:1005000008607047103C024023016745AB89EFCD7E
:1005100000BF0E4A126802F48032002AF9D10B4A59
:10052000121D126822F44072084B1B1D1A601A46F5
:10053000126842F001021A60017000BF034A12689B
:1005400002F48032002AF9D1704700000C3C0240CE
:100550002DE9F0478046894614461D46DDF820A067
:1005600008EB0907BAF1010F06D0BAF1020F0DD05E
:10057000BAF1030F24D116E0002604E0A15DB819FA
:10058000FFF7C6FF761CAE42F8D319E0002607E05D
:1005900034F81610022202FB067000F015F8761CE3
:1005A000AE42F5D30CE0002607E054F826100422F2
:1005B00002FB067000F02CF8761CAE42F5D300BFAB
:1005C00000BFBDE8F087000000BF104A126802F4C7
:1005D0008032002AF9D10D4A121D126822F44072AD
:1005E0000A4B1B1D1A601A46126842F480721A6088
:1005F0001A46126842F001021A60018000BF034AE5
:10060000126802F48032002AF9D170470C3C024093
:1006100000BF104A126802F48032002AF9D10D4A54
:10062000121D126822F440720A4B1B1D1A601A46F2
:10063000126842F400721A601A46126842F001020F
:100640001A60016000BF034A126802F48032002A77
:10065000F9D170470C3C024008B5FFF743FEFFF7A5
:1006600045FF0620FFF7E0FE03200523084A00218E
:1006700000900848FFF76CFFFFF704FF03200523F5
:10068000034A002100900348FFF706FF00BFFEE782
:100690000A000020000004084FF04070E1EE100A4C
:1006A00070470000C4060008000000202800000079
:1006B000C4010008EC0600082800002060060000C5
:1006C000E001000811223344550000000000AA1187
:1006D000BB22CC33DD44EE55BB77AA11CC88BB22BC
:0C06E000FF44CC33CC99DD447766EE5526
:040000050800018965
:00000001FF
