:020000040800F2
:1000000068060020290200083102000833020008B7
:10001000350200083702000839020008000000001D
:100020000000000000000000000000003B0200088B
:100030003D020008000000003F02000841020008E5
:10004000430200084302000843020008430200087C
:10005000430200084302000843020008430200086C
:10006000430200084302000843020008430200085C
:10007000430200084302000843020008430200084C
:10008000430200084302000843020008430200083C
:10009000430200084302000843020008430200082C
:1000A000430200084302000843020008430200081C
:1000B000430200084302000843020008430200080C
:1000C00043020008430200084302000843020008FC
:1000D00043020008430200084302000843020008EC
:1000E00043020008430200084302000843020008DC
:1000F00043020008430200084302000843020008CC
:1001000043020008430200084302000843020008BB
:1001100043020008430200084302000843020008AB
:10012000430200084302000843020008430200089B
:10013000430200084302000843020008430200088B
:10014000430200084302000843020008430200087B
:10015000430200084302000843020008430200086B
:10016000430200084302000843020008430200085B
:100170004302000843020008430200080000000098
:10018000430200084302000800F002F800F03CF8C7
:100190000AA090E8000C82448344AAF10107DA45E2
:1001A00001D100F031F8AFF2090EBAE80F0013F0F8
:1001B000010F18BFFB1A43F001031847DC020000CF
:1001C000FC020000103A24BF78C878C1FAD8520760
:1001D00024BF30C830C144BF04680C6070470000C1
:1001E0000023002400250026103A28BF78C1FBD840
:1001F000520728BF30C148BF0B6070471FB500F0E1
:1002000045F91FBD10B510BD00F031F81146FFF7DC
:10021000F5FF00F023F900F04FF803B4FFF7F2FF09
:1002200003BC00F057F80000094880470948004720
:10023000FEE7FEE7FEE7FEE7FEE7FEE7FEE7FEE796
:10024000FEE7FEE704480549054A064B70470000F3
:10025000A503000889010008680000206806002046
:10026000680200206802002070477047704775469A
:1002700000F02CF8AE4605006946534620F0070012
:10028000854618B020B5FFF7DDFFBDE820404FF0F0
:1002900000064FF000074FF000084FF0000B21F070
:1002A0000701AC46ACE8C009ACE8C009ACE8C0093D
:1002B000ACE8C0098D46704710B50446AFF3008026
:1002C0002046BDE81040FFF7A8BF00000048704777
:1002D0000400002001491820ABBEFEE72600020002
:1002E0007047000010B52A49086840F48030086063
:1002F00008688003FCD526484030026842F08052EE
:100300000260086820F0807008602248026842F4A9
:10031000804202602048026842F400720260026873
:1003200042F480620260026842F4807202600268F5
:1003300042F0050202601648083002680260026856
:1003400042F4A0520260026842F400420260021FBE
:100350001368124C23431360136823F010031360D7
:10036000136823F4005313600A6842F080720A6035
:100370000A689201FCD5016841F002010160016840
:10038000C1F381010229FAD105491020087010BD7E
:100390000038024000700040003C02400854400019
:1003A00023ED00E00548016841F470010160034954
:1003B0004FF00060803908607047000088ED00E071
:1003C00030B504464FF47A7503E0284600F004F88F
:1003D000641E002CF9D130BD10B500244FF0E0218F
:1003E000A7230DE04B618C610A6942F004020A61A7
:1003F0000A6942F001020A610A69D203FCD5401E73
:100400000028EFD110BD0000F0B5134D2E68012774
:1004100007FA01F426432E600568510007FA01F43B
:100420002543056044684460846803258D402C435F
:10043000846001219140012B06D04BB1022B02D1E7
:1004400042694A404261F0BD42690A434261F0BDDF
:1004500042698A434261F0BD30380240FFF742FFF3
:10046000084D094C4FF47A7602230C2203212846CA
:10047000FFF7CAFF2168C1F1010121603046FFF793
:100480009FFFF1E7000C0240000000204FF0407099
:10049000E1EE100A70470000B804000800000020D8
:1004A00004000000C4010008BC040008040000208F
:0C04B00064060000E001000800000000ED
:040000050800018965
:00000001FF
