:020000040800F2
:1000000078060020290200083102000833020008A7
:10001000350200083702000839020008000000001D
:100020000000000000000000000000003B0200088B
:100030003D020008000000003F02000841020008E5
:10004000430200084302000843020008430200087C
:10005000430200084302000843020008430200086C
:10006000430200084302000843020008430200085C
:10007000430200084302000843020008430200084C
:10008000430200084302000843020008430200083C
:10009000430200084302000843020008430200082C
:1000A000430200084302000843020008430200081C
:1000B000430200084302000843020008430200080C
:1000C00043020008430200084302000843020008FC
:1000D00043020008430200084302000843020008EC
:1000E00043020008430200084302000843020008DC
:1000F00043020008430200084302000843020008CC
:1001000043020008430200084302000843020008BB
:1001100043020008430200084302000843020008AB
:10012000430200084302000843020008430200089B
:10013000430200084302000843020008430200088B
:10014000430200084302000843020008430200087B
:10015000430200084302000843020008430200086B
:10016000430200084302000843020008430200085B
:100170004302000843020008430200080000000098
:10018000430200084302000800F002F800F03CF8C7
:100190000AA090E8000C82448344AAF10107DA45E2
:1001A00001D100F031F8AFF2090EBAE80F0013F0F8
:1001B000010F18BFFB1A43F0010318471C0400008D
:1001C0003C040000103A24BF78C878C1FAD852071E
:1001D00024BF30C830C144BF04680C6070470000C1
:1001E0000023002400250026103A28BF78C1FBD840
:1001F000520728BF30C148BF0B6070471FB500F0E1
:10020000E5F91FBD10B510BD00F031F81146FFF73C
:10021000F5FF00F0B1F900F04FF803B4FFF7F2FF7B
:1002200003BC00F057F80000094880470948004720
:10023000FEE7FEE7FEE7FEE7FEE7FEE7FEE7FEE796
:10024000FEE7FEE704480549054A064B70470000F3
:100250000D040008890100087800002078060020BD
:10026000780200207802002070477047704775467A
:1002700000F02CF8AE4605006946534620F0070012
:10028000854618B020B5FFF7DDFFBDE820404FF0F0
:1002900000064FF000074FF000084FF0000B21F070
:1002A0000701AC46ACE8C009ACE8C009ACE8C0093D
:1002B000ACE8C0098D46704710B50446AFF3008026
:1002C0002046BDE81040FFF7A8BF00000048704777
:1002D0001800002001491820ABBEFEE726000200EE
:1002E0007047000010B54348006840F48030414931
:1002F000086000BF3F48006800F400300028F9D0D3
:100300003C484030006840F080503A494031086035
:100310003848006820F08070364908603648006828
:1003200040F48040344908603448006840F400706C
:10033000324908600846006840F48060086008465A
:10034000006840F4807008600846006840F00500CE
:1003500008602848083000682649083108600846C7
:10036000006840F4A05008600846006840F400406F
:100370000860081F0068224908431E49091D0860DB
:100380000846006820F0100008600846006820F465
:1003900000500860081F006840F08070091F086066
:1003A00000BF1448006800F000700028F9D0114820
:1003B0000830006840F002000E490831086000BFB4
:1003C0000C480830006800F00C000828F8D14FF005
:1003D000FF300121002804DB0A07130E094A1354D9
:1003E00006E00A07140E084A00F00F031B1FD4543E
:1003F00000BF10BD0038024000700040003C0240C9
:100400000854400000E400E018ED00E005480068F2
:1004100040F47000034908604FF0006001498039E2
:100420000860704788ED00E030B5274C246844F040
:100430000104254D2C60254C246844F44074234D60
:100440002C600024EC60204C1034246844F00054EC
:100450001D4D10352C6000240460012918D1012A9B
:100460000DD1046844F004040460046801259D4033
:100470002C430460046824F0C004046000E00023FE
:10048000046824F002040460046844F00104046079
:10049000022918D1012A0DD1046844F48024046093
:1004A000046801259D402C430460046824F4400442
:1004B000046000E00023046824F40034046004684D
:1004C00044F48034046030BD303802400000024003
:1004D00030B5012911D1012A02D1124C23601FE04D
:1004E000042A03D10F4C083C236019E0032A17D1DA
:1004F0001C010C4D2D1F2C6012E0022910D1022A84
:1005000003D1084C0C3423600AE0062A03D1054CC1
:10051000241D236004E0052A02D1024C0834236024
:1005200030BD00001074004000B5034604E04FF4F5
:100530007A7000F004F85B1E002BF8D100BD18E0C3
:10054000A7214FF0E0225161002191611146096914
:1005500041F0040111611146096941F00101116185
:1005600000BF4FF0E021096901F480310029F8D083
:10057000401E0028E4D17047FFF7B4FE00231A465E
:1005800001210F48FFF750FF19E00E480E49096896
:1005900050F82130042201210948FFF799FF0A4849
:1005A0000068401C084908604FF47A70FFF7BCFFF0
:1005B00005480068042802D1002003490860E4E7E8
:1005C0000074004004000020140000204FF0407030
:1005D000E1EE100A70470000F80500080000002056
:1005E00018000000C40100081006000818000020D0
:1005F00060060000E0010008D00F4940F40100004F
:10060000DC050000C4090000AC0D00000000000083
:040000050800018965
:00000001FF
